{
  "_format": "hh-sol-artifact-1",
  "contractName": "CampaignManager",
  "sourceName": "contracts/CampaignManager.sol",
  "abi": [
    {
      "inputs": [
        {
          "internalType": "address",
          "name": "_tokenAddress",
          "type": "address"
        }
      ],
      "stateMutability": "nonpayable",
      "type": "constructor"
    },
    {
      "anonymous": false,
      "inputs": [
        {
          "indexed": true,
          "internalType": "string",
          "name": "_name",
          "type": "string"
        },
        {
          "indexed": true,
          "internalType": "address",
          "name": "_address",
          "type": "address"
        }
      ],
      "name": "CampaignCreated",
      "type": "event"
    },
    {
      "anonymous": false,
      "inputs": [
        {
          "indexed": true,
          "internalType": "string",
          "name": "_name",
          "type": "string"
        },
        {
          "indexed": true,
          "internalType": "address",
          "name": "_newOwner",
          "type": "address"
        }
      ],
      "name": "OwnerChanged",
      "type": "event"
    },
    {
      "inputs": [
        {
          "internalType": "uint256",
          "name": "",
          "type": "uint256"
        }
      ],
      "name": "campaigns",
      "outputs": [
        {
          "internalType": "string",
          "name": "name",
          "type": "string"
        },
        {
          "internalType": "contract CrowedCampaign",
          "name": "campaign",
          "type": "address"
        }
      ],
      "stateMutability": "view",
      "type": "function"
    },
    {
      "inputs": [
        {
          "internalType": "string",
          "name": "_name",
          "type": "string"
        },
        {
          "internalType": "address",
          "name": "_newOwner",
          "type": "address"
        }
      ],
      "name": "changeOwner",
      "outputs": [],
      "stateMutability": "nonpayable",
      "type": "function"
    },
    {
      "inputs": [
        {
          "internalType": "string",
          "name": "_name",
          "type": "string"
        }
      ],
      "name": "createCampaign",
      "outputs": [],
      "stateMutability": "nonpayable",
      "type": "function"
    },
    {
      "inputs": [],
      "name": "getCampaigns",
      "outputs": [
        {
          "components": [
            {
              "internalType": "string",
              "name": "name",
              "type": "string"
            },
            {
              "internalType": "contract CrowedCampaign",
              "name": "campaign",
              "type": "address"
            }
          ],
          "internalType": "struct CampaignManager.Campaign[]",
          "name": "",
          "type": "tuple[]"
        }
      ],
      "stateMutability": "view",
      "type": "function"
    },
    {
      "inputs": [],
      "name": "owner",
      "outputs": [
        {
          "internalType": "address",
          "name": "",
          "type": "address"
        }
      ],
      "stateMutability": "view",
      "type": "function"
    },
    {
      "inputs": [],
      "name": "tokenAddress",
      "outputs": [
        {
          "internalType": "address",
          "name": "",
          "type": "address"
        }
      ],
      "stateMutability": "view",
      "type": "function"
    }
  ],
  "bytecode": "0x60806040523480156200001157600080fd5b5060405162002bff38038062002bff833981810160405281019062000037919062000129565b336000806101000a81548173ffffffffffffffffffffffffffffffffffffffff021916908373ffffffffffffffffffffffffffffffffffffffff16021790555080600160006101000a81548173ffffffffffffffffffffffffffffffffffffffff021916908373ffffffffffffffffffffffffffffffffffffffff160217905550506200015b565b600080fd5b600073ffffffffffffffffffffffffffffffffffffffff82169050919050565b6000620000f182620000c4565b9050919050565b6200010381620000e4565b81146200010f57600080fd5b50565b6000815190506200012381620000f8565b92915050565b600060208284031215620001425762000141620000bf565b5b6000620001528482850162000112565b91505092915050565b612a94806200016b6000396000f3fe60806040523480156200001157600080fd5b50600436106200006a5760003560e01c8063141961bc146200006f5780638da5cb5b14620000a65780639d76ea5814620000c8578063a6b0363314620000ea578063d8f9d144146200010c578063fdbf9ff1146200012c575b600080fd5b6200008d60048036038101906200008791906200090a565b6200014c565b6040516200009d92919062000a61565b60405180910390f35b620000b062000231565b604051620000bf919062000aba565b60405180910390f35b620000d262000255565b604051620000e1919062000aba565b60405180910390f35b620000f46200027b565b60405162000103919062000c4b565b60405180910390f35b6200012a600480360381019062000124919062000df1565b620003cc565b005b6200014a600480360381019062000144919062000e57565b620005e8565b005b600281815481106200015d57600080fd5b9060005260206000209060020201600091509050806000018054620001829062000ed7565b80601f0160208091040260200160405190810160405280929190818152602001828054620001b09062000ed7565b8015620002015780601f10620001d55761010080835404028352916020019162000201565b820191906000526020600020905b815481529060010190602001808311620001e357829003601f168201915b5050505050908060010160009054906101000a900473ffffffffffffffffffffffffffffffffffffffff16905082565b60008054906101000a900473ffffffffffffffffffffffffffffffffffffffff1681565b600160009054906101000a900473ffffffffffffffffffffffffffffffffffffffff1681565b60606002805480602002602001604051908101604052809291908181526020016000905b82821015620003c35783829060005260206000209060020201604051806040016040529081600082018054620002d59062000ed7565b80601f0160208091040260200160405190810160405280929190818152602001828054620003039062000ed7565b8015620003545780601f10620003285761010080835404028352916020019162000354565b820191906000526020600020905b8154815290600101906020018083116200033657829003601f168201915b505050505081526020016001820160009054906101000a900473ffffffffffffffffffffffffffffffffffffffff1673ffffffffffffffffffffffffffffffffffffffff1673ffffffffffffffffffffffffffffffffffffffff1681525050815260200190600101906200029f565b50505050905090565b6000620003d983620007ce565b90507fffffffffffffffffffffffffffffffffffffffffffffffffffffffffffffffff810362000440576040517f08c379a0000000000000000000000000000000000000000000000000000000008152600401620004379062000f5c565b60405180910390fd5b60008054906101000a900473ffffffffffffffffffffffffffffffffffffffff1673ffffffffffffffffffffffffffffffffffffffff163373ffffffffffffffffffffffffffffffffffffffff1614620004d1576040517f08c379a0000000000000000000000000000000000000000000000000000000008152600401620004c89062000ff4565b60405180910390fd5b60028181548110620004e857620004e762001016565b5b906000526020600020906002020160010160009054906101000a900473ffffffffffffffffffffffffffffffffffffffff1673ffffffffffffffffffffffffffffffffffffffff1663a6f9dae1836040518263ffffffff1660e01b815260040162000554919062000aba565b600060405180830381600087803b1580156200056f57600080fd5b505af115801562000584573d6000803e3d6000fd5b505050508173ffffffffffffffffffffffffffffffffffffffff1683604051620005af919062001087565b60405180910390207f1e543c5164e1b90903e3929a2c647c508d880a6046b1d1a7120a07875938662160405160405180910390a3505050565b7fffffffffffffffffffffffffffffffffffffffffffffffffffffffffffffffff6200061482620007ce565b1462000657576040517f08c379a00000000000000000000000000000000000000000000000000000000081526004016200064e90620010f0565b60405180910390fd5b6000600160009054906101000a900473ffffffffffffffffffffffffffffffffffffffff16336040516200068b90620008ad565b6200069892919062001112565b604051809103906000f080158015620006b5573d6000803e3d6000fd5b509050600260405180604001604052808481526020018373ffffffffffffffffffffffffffffffffffffffff168152509080600181540180825580915050600190039060005260206000209060020201600090919091909150600082015181600001908162000725919062001307565b5060208201518160010160006101000a81548173ffffffffffffffffffffffffffffffffffffffff021916908373ffffffffffffffffffffffffffffffffffffffff16021790555050508073ffffffffffffffffffffffffffffffffffffffff168260405162000796919062001087565b60405180910390207fef4b5497c791c12c726d44c7bf09817cd1c77f102fb02ade4790ec82106320cf60405160405180910390a35050565b600080600090505b600280549050811015620008835782604051602001620007f7919062001087565b604051602081830303815290604052805190602001206002828154811062000824576200082362001016565b5b90600052602060002090600202016000016040516020016200084791906200147d565b60405160208183030381529060405280519060200120036200086d5780915050620008a8565b80806200087a90620014c5565b915050620007d6565b507fffffffffffffffffffffffffffffffffffffffffffffffffffffffffffffffff90505b919050565b61154c806200151383390190565b6000604051905090565b600080fd5b600080fd5b6000819050919050565b620008e481620008cf565b8114620008f057600080fd5b50565b6000813590506200090481620008d9565b92915050565b600060208284031215620009235762000922620008c5565b5b60006200093384828501620008f3565b91505092915050565b600081519050919050565b600082825260208201905092915050565b60005b83811015620009785780820151818401526020810190506200095b565b60008484015250505050565b6000601f19601f8301169050919050565b6000620009a2826200093c565b620009ae818562000947565b9350620009c081856020860162000958565b620009cb8162000984565b840191505092915050565b600073ffffffffffffffffffffffffffffffffffffffff82169050919050565b6000819050919050565b600062000a2162000a1b62000a1584620009d6565b620009f6565b620009d6565b9050919050565b600062000a358262000a00565b9050919050565b600062000a498262000a28565b9050919050565b62000a5b8162000a3c565b82525050565b6000604082019050818103600083015262000a7d818562000995565b905062000a8e602083018462000a50565b9392505050565b600062000aa282620009d6565b9050919050565b62000ab48162000a95565b82525050565b600060208201905062000ad1600083018462000aa9565b92915050565b600081519050919050565b600082825260208201905092915050565b6000819050602082019050919050565b600082825260208201905092915050565b600062000b21826200093c565b62000b2d818562000b03565b935062000b3f81856020860162000958565b62000b4a8162000984565b840191505092915050565b62000b608162000a3c565b82525050565b6000604083016000830151848203600086015262000b85828262000b14565b915050602083015162000b9c602086018262000b55565b508091505092915050565b600062000bb5838362000b66565b905092915050565b6000602082019050919050565b600062000bd78262000ad7565b62000be3818562000ae2565b93508360208202850162000bf78562000af3565b8060005b8581101562000c39578484038952815162000c17858262000ba7565b945062000c248362000bbd565b925060208a0199505060018101905062000bfb565b50829750879550505050505092915050565b6000602082019050818103600083015262000c67818462000bca565b905092915050565b600080fd5b600080fd5b7f4e487b7100000000000000000000000000000000000000000000000000000000600052604160045260246000fd5b62000cb38262000984565b810181811067ffffffffffffffff8211171562000cd55762000cd462000c79565b5b80604052505050565b600062000cea620008bb565b905062000cf8828262000ca8565b919050565b600067ffffffffffffffff82111562000d1b5762000d1a62000c79565b5b62000d268262000984565b9050602081019050919050565b82818337600083830152505050565b600062000d5962000d538462000cfd565b62000cde565b90508281526020810184848401111562000d785762000d7762000c74565b5b62000d8584828562000d33565b509392505050565b600082601f83011262000da55762000da462000c6f565b5b813562000db784826020860162000d42565b91505092915050565b62000dcb8162000a95565b811462000dd757600080fd5b50565b60008135905062000deb8162000dc0565b92915050565b6000806040838503121562000e0b5762000e0a620008c5565b5b600083013567ffffffffffffffff81111562000e2c5762000e2b620008ca565b5b62000e3a8582860162000d8d565b925050602062000e4d8582860162000dda565b9150509250929050565b60006020828403121562000e705762000e6f620008c5565b5b600082013567ffffffffffffffff81111562000e915762000e90620008ca565b5b62000e9f8482850162000d8d565b91505092915050565b7f4e487b7100000000000000000000000000000000000000000000000000000000600052602260045260246000fd5b6000600282049050600182168062000ef057607f821691505b60208210810362000f065762000f0562000ea8565b5b50919050565b7f43616d706169676e20646f6573206e6f742065786973742e0000000000000000600082015250565b600062000f4460188362000947565b915062000f518262000f0c565b602082019050919050565b6000602082019050818103600083015262000f778162000f35565b9050919050565b7f4f6e6c7920746865206f776e65722063616e206368616e67652074686520636160008201527f6d706169676e206f776e65722e00000000000000000000000000000000000000602082015250565b600062000fdc602d8362000947565b915062000fe98262000f7e565b604082019050919050565b600060208201905081810360008301526200100f8162000fcd565b9050919050565b7f4e487b7100000000000000000000000000000000000000000000000000000000600052603260045260246000fd5b600081905092915050565b60006200105d826200093c565b62001069818562001045565b93506200107b81856020860162000958565b80840191505092915050565b600062001095828462001050565b915081905092915050565b7f43616d706169676e20616c7265616479206578697374732e0000000000000000600082015250565b6000620010d860188362000947565b9150620010e582620010a0565b602082019050919050565b600060208201905081810360008301526200110b81620010c9565b9050919050565b600060408201905062001129600083018562000aa9565b62001138602083018462000aa9565b9392505050565b60008190508160005260206000209050919050565b60006020601f8301049050919050565b600082821b905092915050565b600060088302620011a37fffffffffffffffffffffffffffffffffffffffffffffffffffffffffffffffff8262001164565b620011af868362001164565b95508019841693508086168417925050509392505050565b6000620011e8620011e2620011dc84620008cf565b620009f6565b620008cf565b9050919050565b6000819050919050565b6200120483620011c7565b6200121c6200121382620011ef565b84845462001171565b825550505050565b600090565b6200123362001224565b62001240818484620011f9565b505050565b5b8181101562001268576200125c60008262001229565b60018101905062001246565b5050565b601f821115620012b75762001281816200113f565b6200128c8462001154565b810160208510156200129c578190505b620012b4620012ab8562001154565b83018262001245565b50505b505050565b600082821c905092915050565b6000620012dc60001984600802620012bc565b1980831691505092915050565b6000620012f78383620012c9565b9150826002028217905092915050565b62001312826200093c565b67ffffffffffffffff8111156200132e576200132d62000c79565b5b6200133a825462000ed7565b620013478282856200126c565b600060209050601f8311600181146200137f57600084156200136a578287015190505b620013768582620012e9565b865550620013e6565b601f1984166200138f866200113f565b60005b82811015620013b95784890151825560018201915060208501945060208101905062001392565b86831015620013d95784890151620013d5601f891682620012c9565b8355505b6001600288020188555050505b505050505050565b60008154620013fd8162000ed7565b62001409818662001045565b945060018216600081146200142757600181146200143d5762001474565b60ff198316865281151582028601935062001474565b62001448856200113f565b60005b838110156200146c578154818901526001820191506020810190506200144b565b838801955050505b50505092915050565b60006200148b8284620013ee565b915081905092915050565b7f4e487b7100000000000000000000000000000000000000000000000000000000600052601160045260246000fd5b6000620014d282620008cf565b91507fffffffffffffffffffffffffffffffffffffffffffffffffffffffffffffffff820362001507576200150662001496565b5b60018201905091905056fe60806040523480156200001157600080fd5b506040516200154c3803806200154c833981810160405281019062000037919062000145565b816000806101000a81548173ffffffffffffffffffffffffffffffffffffffff021916908373ffffffffffffffffffffffffffffffffffffffff16021790555080600160006101000a81548173ffffffffffffffffffffffffffffffffffffffff021916908373ffffffffffffffffffffffffffffffffffffffff1602179055506000600560006101000a81548160ff02191690831515021790555050506200018c565b600080fd5b600073ffffffffffffffffffffffffffffffffffffffff82169050919050565b60006200010d82620000e0565b9050919050565b6200011f8162000100565b81146200012b57600080fd5b50565b6000815190506200013f8162000114565b92915050565b600080604083850312156200015f576200015e620000db565b5b60006200016f858286016200012e565b925050602062000182858286016200012e565b9150509250929050565b6113b0806200019c6000396000f3fe608060405234801561001057600080fd5b50600436106100b45760003560e01c80637d3d6522116100715780637d3d65221461017b5780638da5cb5b14610199578063a42c8e45146101b7578063a6f9dae1146101d3578063b6b55f25146101ef578063fc0c546a1461020b576100b4565b8063186bc549146100b957806327e235e3146100d75780632e1a7d4d1461010757806355468ba414610123578063590e1ae31461014157806361449ca21461014b575b600080fd5b6100c1610229565b6040516100ce9190610bcd565b60405180910390f35b6100f160048036038101906100ec9190610c5a565b610233565b6040516100fe9190610bcd565b60405180910390f35b610121600480360381019061011c9190610cb3565b61024b565b005b61012b61046a565b6040516101389190610bcd565b60405180910390f35b610149610470565b005b61016560048036038101906101609190610cb3565b610690565b6040516101729190610bcd565b60405180910390f35b6101836106b4565b6040516101909190610cfb565b60405180910390f35b6101a16106c7565b6040516101ae9190610d25565b60405180910390f35b6101d160048036038101906101cc9190610e99565b6106ed565b005b6101ed60048036038101906101e89190610c5a565b6107c3565b005b61020960048036038101906102049190610cb3565b6108fc565b005b610213610b26565b6040516102209190610f41565b60405180910390f35b6000600354905090565b60026020528060005260406000206000915090505481565b80600260003373ffffffffffffffffffffffffffffffffffffffff1673ffffffffffffffffffffffffffffffffffffffff1681526020019081526020016000205410156102cd576040517f08c379a00000000000000000000000000000000000000000000000000000000081526004016102c490610fb9565b60405180910390fd5b60008054906101000a900473ffffffffffffffffffffffffffffffffffffffff1673ffffffffffffffffffffffffffffffffffffffff1663a9059cbb33836040518363ffffffff1660e01b8152600401610328929190610fd9565b6020604051808303816000875af1158015610347573d6000803e3d6000fd5b505050506040513d601f19601f8201168201806040525081019061036b919061102e565b6103aa576040517f08c379a00000000000000000000000000000000000000000000000000000000081526004016103a1906110a7565b60405180910390fd5b80600260003373ffffffffffffffffffffffffffffffffffffffff1673ffffffffffffffffffffffffffffffffffffffff16815260200190815260200160002060008282546103f991906110f6565b92505081905550806003600082825461041291906110f6565b925050819055503373ffffffffffffffffffffffffffffffffffffffff167f7fcf532c15f0a6db0bd6d0e038bea71d30d808c7d98cb3bf7268a95bf5081b658260405161045f9190610bcd565b60405180910390a250565b60035481565b600560009054906101000a900460ff16156104c0576040517f08c379a00000000000000000000000000000000000000000000000000000000081526004016104b79061119c565b60405180910390fd5b6000600260003373ffffffffffffffffffffffffffffffffffffffff1673ffffffffffffffffffffffffffffffffffffffff16815260200190815260200160002054905060008054906101000a900473ffffffffffffffffffffffffffffffffffffffff1673ffffffffffffffffffffffffffffffffffffffff1663a9059cbb33836040518363ffffffff1660e01b815260040161055f929190610fd9565b6020604051808303816000875af115801561057e573d6000803e3d6000fd5b505050506040513d601f19601f820116820180604052508101906105a2919061102e565b6105e1576040517f08c379a00000000000000000000000000000000000000000000000000000000081526004016105d8906110a7565b60405180910390fd5b6000600260003373ffffffffffffffffffffffffffffffffffffffff1673ffffffffffffffffffffffffffffffffffffffff16815260200190815260200160002081905550806003600082825461063891906110f6565b925050819055503373ffffffffffffffffffffffffffffffffffffffff167fbb28353e4598c3b9199101a66e0989549b659a59a54d2c27fbb183f1932c8e6d826040516106859190610bcd565b60405180910390a250565b600481815481106106a057600080fd5b906000526020600020016000915090505481565b600560009054906101000a900460ff1681565b600160009054906101000a900473ffffffffffffffffffffffffffffffffffffffff1681565b600160009054906101000a900473ffffffffffffffffffffffffffffffffffffffff1673ffffffffffffffffffffffffffffffffffffffff163373ffffffffffffffffffffffffffffffffffffffff161461077d576040517f08c379a00000000000000000000000000000000000000000000000000000000081526004016107749061122e565b60405180910390fd5b8060049080519060200190610793929190610b4a565b507f3780cab77278029a9071de0c961f9d42d63c5629a98c1078e7015f585bcfade460405160405180910390a150565b600160009054906101000a900473ffffffffffffffffffffffffffffffffffffffff1673ffffffffffffffffffffffffffffffffffffffff163373ffffffffffffffffffffffffffffffffffffffff1614610853576040517f08c379a000000000000000000000000000000000000000000000000000000000815260040161084a906112c0565b60405180910390fd5b80600160006101000a81548173ffffffffffffffffffffffffffffffffffffffff021916908373ffffffffffffffffffffffffffffffffffffffff160217905550600160009054906101000a900473ffffffffffffffffffffffffffffffffffffffff1673ffffffffffffffffffffffffffffffffffffffff167fa2ea9883a321a3e97b8266c2b078bfeec6d50c711ed71f874a90d500ae2eaf3660405160405180910390a250565b60008054906101000a900473ffffffffffffffffffffffffffffffffffffffff1673ffffffffffffffffffffffffffffffffffffffff166323b872dd3330846040518463ffffffff1660e01b8152600401610959939291906112e0565b6020604051808303816000875af1158015610978573d6000803e3d6000fd5b505050506040513d601f19601f8201168201806040525081019061099c919061102e565b6109db576040517f08c379a00000000000000000000000000000000000000000000000000000000081526004016109d2906110a7565b60405180910390fd5b80600260003373ffffffffffffffffffffffffffffffffffffffff1673ffffffffffffffffffffffffffffffffffffffff1681526020019081526020016000206000828254610a2a9190611317565b925050819055508060036000828254610a439190611317565b925050819055503373ffffffffffffffffffffffffffffffffffffffff167fe1fffcc4923d04b559f4d29a8bfc6cda04eb5b0d3c460751c2402c5c5cc9109c82604051610a909190610bcd565b60405180910390a2600560009054906101000a900460ff16158015610ad657506004600081548110610ac557610ac461134b565b5b906000526020600020015460035410155b15610b23576001600560006101000a81548160ff0219169083151502179055507ff30bb8af8a065d12f4e39fe65ccc82ca742ae3efb1f64e78630fe4796d92c5fe60405160405180910390a15b50565b60008054906101000a900473ffffffffffffffffffffffffffffffffffffffff1681565b828054828255906000526020600020908101928215610b86579160200282015b82811115610b85578251825591602001919060010190610b6a565b5b509050610b939190610b97565b5090565b5b80821115610bb0576000816000905550600101610b98565b5090565b6000819050919050565b610bc781610bb4565b82525050565b6000602082019050610be26000830184610bbe565b92915050565b6000604051905090565b600080fd5b600080fd5b600073ffffffffffffffffffffffffffffffffffffffff82169050919050565b6000610c2782610bfc565b9050919050565b610c3781610c1c565b8114610c4257600080fd5b50565b600081359050610c5481610c2e565b92915050565b600060208284031215610c7057610c6f610bf2565b5b6000610c7e84828501610c45565b91505092915050565b610c9081610bb4565b8114610c9b57600080fd5b50565b600081359050610cad81610c87565b92915050565b600060208284031215610cc957610cc8610bf2565b5b6000610cd784828501610c9e565b91505092915050565b60008115159050919050565b610cf581610ce0565b82525050565b6000602082019050610d106000830184610cec565b92915050565b610d1f81610c1c565b82525050565b6000602082019050610d3a6000830184610d16565b92915050565b600080fd5b6000601f19601f8301169050919050565b7f4e487b7100000000000000000000000000000000000000000000000000000000600052604160045260246000fd5b610d8e82610d45565b810181811067ffffffffffffffff82111715610dad57610dac610d56565b5b80604052505050565b6000610dc0610be8565b9050610dcc8282610d85565b919050565b600067ffffffffffffffff821115610dec57610deb610d56565b5b602082029050602081019050919050565b600080fd5b6000610e15610e1084610dd1565b610db6565b90508083825260208201905060208402830185811115610e3857610e37610dfd565b5b835b81811015610e615780610e4d8882610c9e565b845260208401935050602081019050610e3a565b5050509392505050565b600082601f830112610e8057610e7f610d40565b5b8135610e90848260208601610e02565b91505092915050565b600060208284031215610eaf57610eae610bf2565b5b600082013567ffffffffffffffff811115610ecd57610ecc610bf7565b5b610ed984828501610e6b565b91505092915050565b6000819050919050565b6000610f07610f02610efd84610bfc565b610ee2565b610bfc565b9050919050565b6000610f1982610eec565b9050919050565b6000610f2b82610f0e565b9050919050565b610f3b81610f20565b82525050565b6000602082019050610f566000830184610f32565b92915050565b600082825260208201905092915050565b7f4e6f7420656e6f7567682066756e64732e000000000000000000000000000000600082015250565b6000610fa3601183610f5c565b9150610fae82610f6d565b602082019050919050565b60006020820190508181036000830152610fd281610f96565b9050919050565b6000604082019050610fee6000830185610d16565b610ffb6020830184610bbe565b9392505050565b61100b81610ce0565b811461101657600080fd5b50565b60008151905061102881611002565b92915050565b60006020828403121561104457611043610bf2565b5b600061105284828501611019565b91505092915050565b7f5472616e73666572206661696c65642e00000000000000000000000000000000600082015250565b6000611091601083610f5c565b915061109c8261105b565b602082019050919050565b600060208201905081810360008301526110c081611084565b9050919050565b7f4e487b7100000000000000000000000000000000000000000000000000000000600052601160045260246000fd5b600061110182610bb4565b915061110c83610bb4565b9250828203905081811115611124576111236110c7565b5b92915050565b7f476f616c732068617665206265656e206d65742c206e6f20726566756e64206160008201527f7661696c61626c652e0000000000000000000000000000000000000000000000602082015250565b6000611186602983610f5c565b91506111918261112a565b604082019050919050565b600060208201905081810360008301526111b581611179565b9050919050565b7f4f6e6c7920746865206f776e65722063616e207365742074686520676f616c7360008201527f2e00000000000000000000000000000000000000000000000000000000000000602082015250565b6000611218602183610f5c565b9150611223826111bc565b604082019050919050565b600060208201905081810360008301526112478161120b565b9050919050565b7f4f6e6c79207468652063757272656e74206f776e65722063616e206368616e6760008201527f6520746865206f776e65722e0000000000000000000000000000000000000000602082015250565b60006112aa602c83610f5c565b91506112b58261124e565b604082019050919050565b600060208201905081810360008301526112d98161129d565b9050919050565b60006060820190506112f56000830186610d16565b6113026020830185610d16565b61130f6040830184610bbe565b949350505050565b600061132282610bb4565b915061132d83610bb4565b9250828201905080821115611345576113446110c7565b5b92915050565b7f4e487b7100000000000000000000000000000000000000000000000000000000600052603260045260246000fdfea26469706673582212200d439aa21459ed5f7570cf0ae4454a63898d2043416760a5e9e91a3e898e34ec64736f6c63430008110033a2646970667358221220fa72e6fbb4858a93ddd5ac3c34f8e1a6f726446f576fc2c0f2a2304f65c2d35964736f6c63430008110033",
  "linkReferences": {},
  "deployedLinkReferences": {}
}