{
  "_format": "hh-sol-artifact-1",
  "contractName": "CrowedCampaign",
  "sourceName": "contracts/CrowedCampaign.sol",
  "abi": [
    {
      "inputs": [
        {
          "internalType": "address",
          "name": "_tokenAddress",
          "type": "address"
        },
        {
          "internalType": "address",
          "name": "creater",
          "type": "address"
        }
      ],
      "stateMutability": "nonpayable",
      "type": "constructor"
    },
    {
      "anonymous": false,
      "inputs": [
        {
          "indexed": true,
          "internalType": "address",
          "name": "_from",
          "type": "address"
        },
        {
          "indexed": false,
          "internalType": "uint256",
          "name": "_amount",
          "type": "uint256"
        }
      ],
      "name": "Deposit",
      "type": "event"
    },
    {
      "anonymous": false,
      "inputs": [],
      "name": "GoalReached",
      "type": "event"
    },
    {
      "anonymous": false,
      "inputs": [],
      "name": "GoalsSet",
      "type": "event"
    },
    {
      "anonymous": false,
      "inputs": [
        {
          "indexed": true,
          "internalType": "address",
          "name": "_newOwner",
          "type": "address"
        }
      ],
      "name": "OwnerChanged",
      "type": "event"
    },
    {
      "anonymous": false,
      "inputs": [
        {
          "indexed": true,
          "internalType": "address",
          "name": "_from",
          "type": "address"
        },
        {
          "indexed": false,
          "internalType": "uint256",
          "name": "_amount",
          "type": "uint256"
        }
      ],
      "name": "Refund",
      "type": "event"
    },
    {
      "anonymous": false,
      "inputs": [
        {
          "indexed": true,
          "internalType": "address",
          "name": "_from",
          "type": "address"
        },
        {
          "indexed": false,
          "internalType": "uint256",
          "name": "_amount",
          "type": "uint256"
        }
      ],
      "name": "Withdrawal",
      "type": "event"
    },
    {
      "inputs": [
        {
          "internalType": "address",
          "name": "",
          "type": "address"
        }
      ],
      "name": "balances",
      "outputs": [
        {
          "internalType": "uint256",
          "name": "",
          "type": "uint256"
        }
      ],
      "stateMutability": "view",
      "type": "function"
    },
    {
      "inputs": [
        {
          "internalType": "address",
          "name": "_newOwner",
          "type": "address"
        }
      ],
      "name": "changeOwner",
      "outputs": [],
      "stateMutability": "nonpayable",
      "type": "function"
    },
    {
      "inputs": [
        {
          "internalType": "uint256",
          "name": "_amount",
          "type": "uint256"
        }
      ],
      "name": "deposit",
      "outputs": [],
      "stateMutability": "nonpayable",
      "type": "function"
    },
    {
      "inputs": [],
      "name": "getPledgedAmount",
      "outputs": [
        {
          "internalType": "uint256",
          "name": "",
          "type": "uint256"
        }
      ],
      "stateMutability": "view",
      "type": "function"
    },
    {
      "inputs": [],
      "name": "goalReached",
      "outputs": [
        {
          "internalType": "bool",
          "name": "",
          "type": "bool"
        }
      ],
      "stateMutability": "view",
      "type": "function"
    },
    {
      "inputs": [
        {
          "internalType": "uint256",
          "name": "",
          "type": "uint256"
        }
      ],
      "name": "goals",
      "outputs": [
        {
          "internalType": "uint256",
          "name": "",
          "type": "uint256"
        }
      ],
      "stateMutability": "view",
      "type": "function"
    },
    {
      "inputs": [],
      "name": "owner",
      "outputs": [
        {
          "internalType": "address",
          "name": "",
          "type": "address"
        }
      ],
      "stateMutability": "view",
      "type": "function"
    },
    {
      "inputs": [],
      "name": "refund",
      "outputs": [],
      "stateMutability": "nonpayable",
      "type": "function"
    },
    {
      "inputs": [
        {
          "internalType": "uint256[]",
          "name": "_goals",
          "type": "uint256[]"
        }
      ],
      "name": "setGoals",
      "outputs": [],
      "stateMutability": "nonpayable",
      "type": "function"
    },
    {
      "inputs": [],
      "name": "token",
      "outputs": [
        {
          "internalType": "contract ERC20",
          "name": "",
          "type": "address"
        }
      ],
      "stateMutability": "view",
      "type": "function"
    },
    {
      "inputs": [],
      "name": "totalPledged",
      "outputs": [
        {
          "internalType": "uint256",
          "name": "",
          "type": "uint256"
        }
      ],
      "stateMutability": "view",
      "type": "function"
    },
    {
      "inputs": [
        {
          "internalType": "uint256",
          "name": "_amount",
          "type": "uint256"
        }
      ],
      "name": "withdraw",
      "outputs": [],
      "stateMutability": "nonpayable",
      "type": "function"
    }
  ],
  "bytecode": "0x60806040523480156200001157600080fd5b506040516200154c3803806200154c833981810160405281019062000037919062000145565b816000806101000a81548173ffffffffffffffffffffffffffffffffffffffff021916908373ffffffffffffffffffffffffffffffffffffffff16021790555080600160006101000a81548173ffffffffffffffffffffffffffffffffffffffff021916908373ffffffffffffffffffffffffffffffffffffffff1602179055506000600560006101000a81548160ff02191690831515021790555050506200018c565b600080fd5b600073ffffffffffffffffffffffffffffffffffffffff82169050919050565b60006200010d82620000e0565b9050919050565b6200011f8162000100565b81146200012b57600080fd5b50565b6000815190506200013f8162000114565b92915050565b600080604083850312156200015f576200015e620000db565b5b60006200016f858286016200012e565b925050602062000182858286016200012e565b9150509250929050565b6113b0806200019c6000396000f3fe608060405234801561001057600080fd5b50600436106100b45760003560e01c80637d3d6522116100715780637d3d65221461017b5780638da5cb5b14610199578063a42c8e45146101b7578063a6f9dae1146101d3578063b6b55f25146101ef578063fc0c546a1461020b576100b4565b8063186bc549146100b957806327e235e3146100d75780632e1a7d4d1461010757806355468ba414610123578063590e1ae31461014157806361449ca21461014b575b600080fd5b6100c1610229565b6040516100ce9190610bcd565b60405180910390f35b6100f160048036038101906100ec9190610c5a565b610233565b6040516100fe9190610bcd565b60405180910390f35b610121600480360381019061011c9190610cb3565b61024b565b005b61012b61046a565b6040516101389190610bcd565b60405180910390f35b610149610470565b005b61016560048036038101906101609190610cb3565b610690565b6040516101729190610bcd565b60405180910390f35b6101836106b4565b6040516101909190610cfb565b60405180910390f35b6101a16106c7565b6040516101ae9190610d25565b60405180910390f35b6101d160048036038101906101cc9190610e99565b6106ed565b005b6101ed60048036038101906101e89190610c5a565b6107c3565b005b61020960048036038101906102049190610cb3565b6108fc565b005b610213610b26565b6040516102209190610f41565b60405180910390f35b6000600354905090565b60026020528060005260406000206000915090505481565b80600260003373ffffffffffffffffffffffffffffffffffffffff1673ffffffffffffffffffffffffffffffffffffffff1681526020019081526020016000205410156102cd576040517f08c379a00000000000000000000000000000000000000000000000000000000081526004016102c490610fb9565b60405180910390fd5b60008054906101000a900473ffffffffffffffffffffffffffffffffffffffff1673ffffffffffffffffffffffffffffffffffffffff1663a9059cbb33836040518363ffffffff1660e01b8152600401610328929190610fd9565b6020604051808303816000875af1158015610347573d6000803e3d6000fd5b505050506040513d601f19601f8201168201806040525081019061036b919061102e565b6103aa576040517f08c379a00000000000000000000000000000000000000000000000000000000081526004016103a1906110a7565b60405180910390fd5b80600260003373ffffffffffffffffffffffffffffffffffffffff1673ffffffffffffffffffffffffffffffffffffffff16815260200190815260200160002060008282546103f991906110f6565b92505081905550806003600082825461041291906110f6565b925050819055503373ffffffffffffffffffffffffffffffffffffffff167f7fcf532c15f0a6db0bd6d0e038bea71d30d808c7d98cb3bf7268a95bf5081b658260405161045f9190610bcd565b60405180910390a250565b60035481565b600560009054906101000a900460ff16156104c0576040517f08c379a00000000000000000000000000000000000000000000000000000000081526004016104b79061119c565b60405180910390fd5b6000600260003373ffffffffffffffffffffffffffffffffffffffff1673ffffffffffffffffffffffffffffffffffffffff16815260200190815260200160002054905060008054906101000a900473ffffffffffffffffffffffffffffffffffffffff1673ffffffffffffffffffffffffffffffffffffffff1663a9059cbb33836040518363ffffffff1660e01b815260040161055f929190610fd9565b6020604051808303816000875af115801561057e573d6000803e3d6000fd5b505050506040513d601f19601f820116820180604052508101906105a2919061102e565b6105e1576040517f08c379a00000000000000000000000000000000000000000000000000000000081526004016105d8906110a7565b60405180910390fd5b6000600260003373ffffffffffffffffffffffffffffffffffffffff1673ffffffffffffffffffffffffffffffffffffffff16815260200190815260200160002081905550806003600082825461063891906110f6565b925050819055503373ffffffffffffffffffffffffffffffffffffffff167fbb28353e4598c3b9199101a66e0989549b659a59a54d2c27fbb183f1932c8e6d826040516106859190610bcd565b60405180910390a250565b600481815481106106a057600080fd5b906000526020600020016000915090505481565b600560009054906101000a900460ff1681565b600160009054906101000a900473ffffffffffffffffffffffffffffffffffffffff1681565b600160009054906101000a900473ffffffffffffffffffffffffffffffffffffffff1673ffffffffffffffffffffffffffffffffffffffff163373ffffffffffffffffffffffffffffffffffffffff161461077d576040517f08c379a00000000000000000000000000000000000000000000000000000000081526004016107749061122e565b60405180910390fd5b8060049080519060200190610793929190610b4a565b507f3780cab77278029a9071de0c961f9d42d63c5629a98c1078e7015f585bcfade460405160405180910390a150565b600160009054906101000a900473ffffffffffffffffffffffffffffffffffffffff1673ffffffffffffffffffffffffffffffffffffffff163373ffffffffffffffffffffffffffffffffffffffff1614610853576040517f08c379a000000000000000000000000000000000000000000000000000000000815260040161084a906112c0565b60405180910390fd5b80600160006101000a81548173ffffffffffffffffffffffffffffffffffffffff021916908373ffffffffffffffffffffffffffffffffffffffff160217905550600160009054906101000a900473ffffffffffffffffffffffffffffffffffffffff1673ffffffffffffffffffffffffffffffffffffffff167fa2ea9883a321a3e97b8266c2b078bfeec6d50c711ed71f874a90d500ae2eaf3660405160405180910390a250565b60008054906101000a900473ffffffffffffffffffffffffffffffffffffffff1673ffffffffffffffffffffffffffffffffffffffff166323b872dd3330846040518463ffffffff1660e01b8152600401610959939291906112e0565b6020604051808303816000875af1158015610978573d6000803e3d6000fd5b505050506040513d601f19601f8201168201806040525081019061099c919061102e565b6109db576040517f08c379a00000000000000000000000000000000000000000000000000000000081526004016109d2906110a7565b60405180910390fd5b80600260003373ffffffffffffffffffffffffffffffffffffffff1673ffffffffffffffffffffffffffffffffffffffff1681526020019081526020016000206000828254610a2a9190611317565b925050819055508060036000828254610a439190611317565b925050819055503373ffffffffffffffffffffffffffffffffffffffff167fe1fffcc4923d04b559f4d29a8bfc6cda04eb5b0d3c460751c2402c5c5cc9109c82604051610a909190610bcd565b60405180910390a2600560009054906101000a900460ff16158015610ad657506004600081548110610ac557610ac461134b565b5b906000526020600020015460035410155b15610b23576001600560006101000a81548160ff0219169083151502179055507ff30bb8af8a065d12f4e39fe65ccc82ca742ae3efb1f64e78630fe4796d92c5fe60405160405180910390a15b50565b60008054906101000a900473ffffffffffffffffffffffffffffffffffffffff1681565b828054828255906000526020600020908101928215610b86579160200282015b82811115610b85578251825591602001919060010190610b6a565b5b509050610b939190610b97565b5090565b5b80821115610bb0576000816000905550600101610b98565b5090565b6000819050919050565b610bc781610bb4565b82525050565b6000602082019050610be26000830184610bbe565b92915050565b6000604051905090565b600080fd5b600080fd5b600073ffffffffffffffffffffffffffffffffffffffff82169050919050565b6000610c2782610bfc565b9050919050565b610c3781610c1c565b8114610c4257600080fd5b50565b600081359050610c5481610c2e565b92915050565b600060208284031215610c7057610c6f610bf2565b5b6000610c7e84828501610c45565b91505092915050565b610c9081610bb4565b8114610c9b57600080fd5b50565b600081359050610cad81610c87565b92915050565b600060208284031215610cc957610cc8610bf2565b5b6000610cd784828501610c9e565b91505092915050565b60008115159050919050565b610cf581610ce0565b82525050565b6000602082019050610d106000830184610cec565b92915050565b610d1f81610c1c565b82525050565b6000602082019050610d3a6000830184610d16565b92915050565b600080fd5b6000601f19601f8301169050919050565b7f4e487b7100000000000000000000000000000000000000000000000000000000600052604160045260246000fd5b610d8e82610d45565b810181811067ffffffffffffffff82111715610dad57610dac610d56565b5b80604052505050565b6000610dc0610be8565b9050610dcc8282610d85565b919050565b600067ffffffffffffffff821115610dec57610deb610d56565b5b602082029050602081019050919050565b600080fd5b6000610e15610e1084610dd1565b610db6565b90508083825260208201905060208402830185811115610e3857610e37610dfd565b5b835b81811015610e615780610e4d8882610c9e565b845260208401935050602081019050610e3a565b5050509392505050565b600082601f830112610e8057610e7f610d40565b5b8135610e90848260208601610e02565b91505092915050565b600060208284031215610eaf57610eae610bf2565b5b600082013567ffffffffffffffff811115610ecd57610ecc610bf7565b5b610ed984828501610e6b565b91505092915050565b6000819050919050565b6000610f07610f02610efd84610bfc565b610ee2565b610bfc565b9050919050565b6000610f1982610eec565b9050919050565b6000610f2b82610f0e565b9050919050565b610f3b81610f20565b82525050565b6000602082019050610f566000830184610f32565b92915050565b600082825260208201905092915050565b7f4e6f7420656e6f7567682066756e64732e000000000000000000000000000000600082015250565b6000610fa3601183610f5c565b9150610fae82610f6d565b602082019050919050565b60006020820190508181036000830152610fd281610f96565b9050919050565b6000604082019050610fee6000830185610d16565b610ffb6020830184610bbe565b9392505050565b61100b81610ce0565b811461101657600080fd5b50565b60008151905061102881611002565b92915050565b60006020828403121561104457611043610bf2565b5b600061105284828501611019565b91505092915050565b7f5472616e73666572206661696c65642e00000000000000000000000000000000600082015250565b6000611091601083610f5c565b915061109c8261105b565b602082019050919050565b600060208201905081810360008301526110c081611084565b9050919050565b7f4e487b7100000000000000000000000000000000000000000000000000000000600052601160045260246000fd5b600061110182610bb4565b915061110c83610bb4565b9250828203905081811115611124576111236110c7565b5b92915050565b7f476f616c732068617665206265656e206d65742c206e6f20726566756e64206160008201527f7661696c61626c652e0000000000000000000000000000000000000000000000602082015250565b6000611186602983610f5c565b91506111918261112a565b604082019050919050565b600060208201905081810360008301526111b581611179565b9050919050565b7f4f6e6c7920746865206f776e65722063616e207365742074686520676f616c7360008201527f2e00000000000000000000000000000000000000000000000000000000000000602082015250565b6000611218602183610f5c565b9150611223826111bc565b604082019050919050565b600060208201905081810360008301526112478161120b565b9050919050565b7f4f6e6c79207468652063757272656e74206f776e65722063616e206368616e6760008201527f6520746865206f776e65722e0000000000000000000000000000000000000000602082015250565b60006112aa602c83610f5c565b91506112b58261124e565b604082019050919050565b600060208201905081810360008301526112d98161129d565b9050919050565b60006060820190506112f56000830186610d16565b6113026020830185610d16565b61130f6040830184610bbe565b949350505050565b600061132282610bb4565b915061132d83610bb4565b9250828201905080821115611345576113446110c7565b5b92915050565b7f4e487b7100000000000000000000000000000000000000000000000000000000600052603260045260246000fdfea26469706673582212200d439aa21459ed5f7570cf0ae4454a63898d2043416760a5e9e91a3e898e34ec64736f6c63430008110033",
  "linkReferences": {},
  "deployedLinkReferences": {}
}